{
  "contractName": "MyBank",
  "abi": [
    {
      "inputs": [],
      "stateMutability": "payable",
      "type": "constructor"
    },
    {
      "anonymous": false,
      "inputs": [
        {
          "indexed": true,
          "internalType": "address",
          "name": "accountAddress",
          "type": "address"
        },
        {
          "indexed": false,
          "internalType": "uint256",
          "name": "amount",
          "type": "uint256"
        }
      ],
      "name": "LogDepositMade",
      "type": "event"
    },
    {
      "inputs": [],
      "name": "owner",
      "outputs": [
        {
          "internalType": "address",
          "name": "",
          "type": "address"
        }
      ],
      "stateMutability": "view",
      "type": "function"
    },
    {
      "inputs": [],
      "name": "enroll",
      "outputs": [
        {
          "internalType": "uint256",
          "name": "",
          "type": "uint256"
        }
      ],
      "stateMutability": "nonpayable",
      "type": "function"
    },
    {
      "inputs": [
        {
          "internalType": "address",
          "name": "_account",
          "type": "address"
        }
      ],
      "name": "getUser",
      "outputs": [
        {
          "internalType": "address",
          "name": "",
          "type": "address"
        }
      ],
      "stateMutability": "pure",
      "type": "function"
    },
    {
      "inputs": [],
      "name": "deposit",
      "outputs": [
        {
          "internalType": "uint256",
          "name": "",
          "type": "uint256"
        }
      ],
      "stateMutability": "payable",
      "type": "function"
    },
    {
      "inputs": [
        {
          "internalType": "uint256",
          "name": "withdrawAmount",
          "type": "uint256"
        }
      ],
      "name": "withdraw",
      "outputs": [
        {
          "internalType": "uint256",
          "name": "remainingBal",
          "type": "uint256"
        }
      ],
      "stateMutability": "nonpayable",
      "type": "function"
    },
    {
      "inputs": [],
      "name": "balance",
      "outputs": [
        {
          "internalType": "uint256",
          "name": "",
          "type": "uint256"
        }
      ],
      "stateMutability": "view",
      "type": "function"
    },
    {
      "inputs": [],
      "name": "depositsBalance",
      "outputs": [
        {
          "internalType": "uint256",
          "name": "",
          "type": "uint256"
        }
      ],
      "stateMutability": "view",
      "type": "function"
    }
  ],
  "bytecode": "0x60806040526801a055690d9db80000341461004f576040517f08c379a000000000000000000000000000000000000000000000000000000000815260040161004690610133565b60405180910390fd5b33600260006101000a81548173ffffffffffffffffffffffffffffffffffffffff021916908373ffffffffffffffffffffffffffffffffffffffff16021790555060008060006101000a81548160ff021916908360ff160217905550610153565b600082825260208201905092915050565b7f333020657468657220696e697469616c2066756e64696e67207265717569726560008201527f6400000000000000000000000000000000000000000000000000000000000000602082015250565b600061011d6021836100b0565b9150610128826100c1565b604082019050919050565b6000602082019050818103600083015261014c81610110565b9050919050565b6107a1806101626000396000f3fe6080604052600436106100705760003560e01c80638da5cb5b1161004e5780638da5cb5b1461011a578063b69ef8a814610145578063d0e30db014610170578063e65f2a7e1461018e57610070565b8063138fbe71146100755780632e1a7d4d146100a05780636f77926b146100dd575b600080fd5b34801561008157600080fd5b5061008a6101b9565b604051610097919061054d565b60405180910390f35b3480156100ac57600080fd5b506100c760048036038101906100c29190610599565b6101c1565b6040516100d4919061054d565b60405180910390f35b3480156100e957600080fd5b5061010460048036038101906100ff9190610624565b6102ee565b6040516101119190610660565b60405180910390f35b34801561012657600080fd5b5061012f6102f8565b60405161013c9190610660565b60405180910390f35b34801561015157600080fd5b5061015a61031e565b604051610167919061054d565b60405180910390f35b610178610365565b604051610185919061054d565b60405180910390f35b34801561019a57600080fd5b506101a3610450565b6040516101b0919061054d565b60405180910390f35b600047905090565b6000600160003373ffffffffffffffffffffffffffffffffffffffff1673ffffffffffffffffffffffffffffffffffffffff1681526020019081526020016000205482116102a75781600160003373ffffffffffffffffffffffffffffffffffffffff1673ffffffffffffffffffffffffffffffffffffffff168152602001908152602001600020600082825461025891906106aa565b925050819055503373ffffffffffffffffffffffffffffffffffffffff166108fc839081150290604051600060405180830381858888f193505050501580156102a5573d6000803e3d6000fd5b505b600160003373ffffffffffffffffffffffffffffffffffffffff1673ffffffffffffffffffffffffffffffffffffffff168152602001908152602001600020549050919050565b6000819050919050565b600260009054906101000a900473ffffffffffffffffffffffffffffffffffffffff1681565b6000600160003373ffffffffffffffffffffffffffffffffffffffff1673ffffffffffffffffffffffffffffffffffffffff16815260200190815260200160002054905090565b600034600160003373ffffffffffffffffffffffffffffffffffffffff1673ffffffffffffffffffffffffffffffffffffffff16815260200190815260200160002060008282546103b691906106de565b925050819055503373ffffffffffffffffffffffffffffffffffffffff167fa8126f7572bb1fdeae5b5aa9ec126438b91f658a07873f009d041ae690f3a19334604051610403919061054d565b60405180910390a2600160003373ffffffffffffffffffffffffffffffffffffffff1673ffffffffffffffffffffffffffffffffffffffff16815260200190815260200160002054905090565b6000600360008054906101000a900460ff1660ff1610156104ef5760008081819054906101000a900460ff168092919061048990610741565b91906101000a81548160ff021916908360ff16021790555050678ac7230489e80000600160003373ffffffffffffffffffffffffffffffffffffffff1673ffffffffffffffffffffffffffffffffffffffff168152602001908152602001600020819055505b600160003373ffffffffffffffffffffffffffffffffffffffff1673ffffffffffffffffffffffffffffffffffffffff16815260200190815260200160002054905090565b6000819050919050565b61054781610534565b82525050565b6000602082019050610562600083018461053e565b92915050565b600080fd5b61057681610534565b811461058157600080fd5b50565b6000813590506105938161056d565b92915050565b6000602082840312156105af576105ae610568565b5b60006105bd84828501610584565b91505092915050565b600073ffffffffffffffffffffffffffffffffffffffff82169050919050565b60006105f1826105c6565b9050919050565b610601816105e6565b811461060c57600080fd5b50565b60008135905061061e816105f8565b92915050565b60006020828403121561063a57610639610568565b5b60006106488482850161060f565b91505092915050565b61065a816105e6565b82525050565b60006020820190506106756000830184610651565b92915050565b7f4e487b7100000000000000000000000000000000000000000000000000000000600052601160045260246000fd5b60006106b582610534565b91506106c083610534565b9250828210156106d3576106d261067b565b5b828203905092915050565b60006106e982610534565b91506106f483610534565b9250827fffffffffffffffffffffffffffffffffffffffffffffffffffffffffffffffff038211156107295761072861067b565b5b828201905092915050565b600060ff82169050919050565b600061074c82610734565b915060ff8214156107605761075f61067b565b5b60018201905091905056fea264697066735822122075e3df825d46fc810d27c08cc66ad265ae233123a88e789517a2275afbae3d7364736f6c634300080a0033",
  "immutableReferences": {},
  "source": "// SPDX-License-Identifier: GPL-3.0\npragma solidity >=0.7.0 <0.9.0;\n\ncontract MyBank {\n    \n    uint8 private clientCount;\n    mapping (address => uint) private balances;\n    address public owner;\n\n  // Log the event about a deposit being made by an address and its amount\n    event LogDepositMade(address indexed accountAddress, uint amount);\n\n    // Constructor is \"payable\" so it can receive the initial funding of 30, \n    // required to reward the first 3 clients\n    constructor() payable {\n        require(msg.value == 30 ether, \"30 ether initial funding required\");\n        /* Set the owner to the creator of this contract */\n        owner = msg.sender;\n        clientCount = 0;\n    }\n\n    /// @notice Enroll a customer with the bank, \n    /// giving the first 3 of them 10 ether as reward\n    /// @return The balance of the user after enrolling\n    function enroll() public returns (uint) {\n        if (clientCount < 3) {\n            clientCount++;\n            balances[msg.sender] = 10 ether;\n        }\n        return balances[msg.sender];\n    }\n\n    function getUser(address _account) public pure returns (address) {\n        return _account;\n    }\n\n    /// @notice Deposit ether into bank, requires method is \"payable\"\n    /// @return The balance of the user after the deposit is made\n    function deposit() public payable returns (uint) {\n        balances[msg.sender] += msg.value;\n        emit LogDepositMade(msg.sender, msg.value);\n        return balances[msg.sender];\n    }\n\n    function withdraw(uint withdrawAmount) public returns (uint remainingBal) {\n        // Check enough balance available, otherwise just return balance\n        if (withdrawAmount <= balances[msg.sender]) {\n            balances[msg.sender] -= withdrawAmount;\n            payable(msg.sender).transfer(withdrawAmount);\n        }\n        return balances[msg.sender];\n    }\n\n    /// @notice Just reads balance of the account requesting, so \"constant\"\n    /// @return The balance of the user\n    function balance() public view returns (uint) {\n        return balances[msg.sender];\n    }\n\n    /// @return The balance of the Simple Bank contract\n    function depositsBalance() public view returns (uint) {\n        return address(this).balance;\n    }\n\n}",
  "sourcePath": "/Users/thanakornthongmee/Desktop/dev/practice/blockchain/fungjai-test/contracts/MyBank.sol",
  "compiler": {
    "name": "solc",
    "version": "0.8.10+commit.fc410830.Emscripten.clang"
  },
  "schemaVersion": "3.4.3",
  "updatedAt": "2021-12-05T14:57:25.832Z",
  "devdoc": {
    "kind": "dev",
    "methods": {
      "balance()": {
        "returns": {
          "_0": "The balance of the user"
        }
      },
      "deposit()": {
        "returns": {
          "_0": "The balance of the user after the deposit is made"
        }
      },
      "depositsBalance()": {
        "returns": {
          "_0": "The balance of the Simple Bank contract"
        }
      },
      "enroll()": {
        "returns": {
          "_0": "The balance of the user after enrolling"
        }
      }
    },
    "version": 1
  },
  "userdoc": {
    "kind": "user",
    "methods": {
      "balance()": {
        "notice": "Just reads balance of the account requesting, so \"constant\""
      },
      "deposit()": {
        "notice": "Deposit ether into bank, requires method is \"payable\""
      },
      "enroll()": {
        "notice": "Enroll a customer with the bank,  giving the first 3 of them 10 ether as reward"
      }
    },
    "version": 1
  }
}