{
  "contractName": "MySocial",
  "abi": [
    {
      "inputs": [],
      "stateMutability": "payable",
      "type": "constructor"
    },
    {
      "inputs": [],
      "name": "owner",
      "outputs": [
        {
          "internalType": "address",
          "name": "",
          "type": "address"
        }
      ],
      "stateMutability": "view",
      "type": "function"
    },
    {
      "inputs": [
        {
          "internalType": "string",
          "name": "_accountName",
          "type": "string"
        }
      ],
      "name": "register",
      "outputs": [
        {
          "internalType": "uint256",
          "name": "",
          "type": "uint256"
        }
      ],
      "stateMutability": "nonpayable",
      "type": "function"
    },
    {
      "inputs": [],
      "name": "getAccountName",
      "outputs": [
        {
          "internalType": "string",
          "name": "",
          "type": "string"
        }
      ],
      "stateMutability": "view",
      "type": "function"
    },
    {
      "inputs": [],
      "name": "feed",
      "outputs": [
        {
          "components": [
            {
              "internalType": "string",
              "name": "name",
              "type": "string"
            },
            {
              "internalType": "string",
              "name": "caption",
              "type": "string"
            },
            {
              "internalType": "address",
              "name": "account",
              "type": "address"
            }
          ],
          "internalType": "struct MySocial.Feeds[]",
          "name": "",
          "type": "tuple[]"
        }
      ],
      "stateMutability": "view",
      "type": "function"
    },
    {
      "inputs": [
        {
          "internalType": "string",
          "name": "_name",
          "type": "string"
        },
        {
          "internalType": "string",
          "name": "_caption",
          "type": "string"
        }
      ],
      "name": "post",
      "outputs": [
        {
          "internalType": "uint256",
          "name": "",
          "type": "uint256"
        }
      ],
      "stateMutability": "nonpayable",
      "type": "function"
    },
    {
      "inputs": [
        {
          "internalType": "address",
          "name": "_reciever",
          "type": "address"
        },
        {
          "internalType": "uint256",
          "name": "_amount",
          "type": "uint256"
        }
      ],
      "name": "donate",
      "outputs": [
        {
          "internalType": "uint256",
          "name": "",
          "type": "uint256"
        }
      ],
      "stateMutability": "nonpayable",
      "type": "function"
    },
    {
      "inputs": [],
      "name": "balance",
      "outputs": [
        {
          "internalType": "uint256",
          "name": "",
          "type": "uint256"
        }
      ],
      "stateMutability": "view",
      "type": "function"
    },
    {
      "inputs": [
        {
          "internalType": "uint256",
          "name": "_amount",
          "type": "uint256"
        }
      ],
      "name": "withdraw",
      "outputs": [
        {
          "internalType": "uint256",
          "name": "",
          "type": "uint256"
        }
      ],
      "stateMutability": "nonpayable",
      "type": "function"
    }
  ],
  "bytecode": "0x60806040526801158e460913d00000341461004f576040517f08c379a00000000000000000000000000000000000000000000000000000000081526004016100469061010e565b60405180910390fd5b336000806101000a81548173ffffffffffffffffffffffffffffffffffffffff021916908373ffffffffffffffffffffffffffffffffffffffff16021790555060008060146101000a81548161ffff021916908361ffff16021790555061012e565b600082825260208201905092915050565b7f696e697469616c206574686572206e6f7420616e6f7567680000000000000000600082015250565b60006100f86018836100b1565b9150610103826100c2565b602082019050919050565b60006020820190508181036000830152610127816100eb565b9050919050565b6112518061013d6000396000f3fe608060405234801561001057600080fd5b50600436106100885760003560e01c80638da5cb5b1161005b5780638da5cb5b14610129578063b69ef8a814610147578063e69d849d14610165578063f2c298be1461019557610088565b80630ae1b13d1461008d5780632e1a7d4d146100bd57806337a7b7d8146100ed578063638dc2b51461010b575b600080fd5b6100a760048036038101906100a29190610b67565b6101c5565b6040516100b49190610bf8565b60405180910390f35b6100d760048036038101906100d29190610c3f565b6102fe565b6040516100e49190610bf8565b60405180910390f35b6100f56103c2565b6040516101029190610e4e565b60405180910390f35b61011361059b565b6040516101209190610eba565b60405180910390f35b61013161066a565b60405161013e9190610eeb565b60405180910390f35b61014f61068e565b60405161015c9190610bf8565b60405180910390f35b61017f600480360381019061017a9190610f32565b6106d5565b60405161018c9190610bf8565b60405180910390f35b6101af60048036038101906101aa9190610f72565b6107cb565b6040516101bc9190610bf8565b60405180910390f35b6000600260405180606001604052808581526020018481526020016004866040516101f09190610ff7565b908152602001604051809103902060009054906101000a900473ffffffffffffffffffffffffffffffffffffffff1673ffffffffffffffffffffffffffffffffffffffff168152509080600181540180825580915050600190039060005260206000209060030201600090919091909150600082015181600001908051906020019061027d92919061096a565b50602082015181600101908051906020019061029a92919061096a565b5060408201518160020160006101000a81548173ffffffffffffffffffffffffffffffffffffffff021916908373ffffffffffffffffffffffffffffffffffffffff160217905550505060016002805490506102f6919061103d565b905092915050565b600080600a6009846103109190611071565b61031a91906110fa565b905082600360003373ffffffffffffffffffffffffffffffffffffffff1673ffffffffffffffffffffffffffffffffffffffff168152602001908152602001600020600082825461036b919061103d565b925050819055503373ffffffffffffffffffffffffffffffffffffffff166108fc829081150290604051600060405180830381858888f193505050501580156103b8573d6000803e3d6000fd5b5080915050919050565b60606002805480602002602001604051908101604052809291908181526020016000905b8282101561059257838290600052602060002090600302016040518060600160405290816000820180546104199061115a565b80601f01602080910402602001604051908101604052809291908181526020018280546104459061115a565b80156104925780601f1061046757610100808354040283529160200191610492565b820191906000526020600020905b81548152906001019060200180831161047557829003601f168201915b505050505081526020016001820180546104ab9061115a565b80601f01602080910402602001604051908101604052809291908181526020018280546104d79061115a565b80156105245780601f106104f957610100808354040283529160200191610524565b820191906000526020600020905b81548152906001019060200180831161050757829003601f168201915b505050505081526020016002820160009054906101000a900473ffffffffffffffffffffffffffffffffffffffff1673ffffffffffffffffffffffffffffffffffffffff1673ffffffffffffffffffffffffffffffffffffffff1681525050815260200190600101906103e6565b50505050905090565b6060600560003373ffffffffffffffffffffffffffffffffffffffff1673ffffffffffffffffffffffffffffffffffffffff16815260200190815260200160002080546105e79061115a565b80601f01602080910402602001604051908101604052809291908181526020018280546106139061115a565b80156106605780601f1061063557610100808354040283529160200191610660565b820191906000526020600020905b81548152906001019060200180831161064357829003601f168201915b5050505050905090565b60008054906101000a900473ffffffffffffffffffffffffffffffffffffffff1681565b6000600360003373ffffffffffffffffffffffffffffffffffffffff1673ffffffffffffffffffffffffffffffffffffffff16815260200190815260200160002054905090565b600081600360003373ffffffffffffffffffffffffffffffffffffffff1673ffffffffffffffffffffffffffffffffffffffff1681526020019081526020016000206000828254610726919061103d565b9250508190555081600360008573ffffffffffffffffffffffffffffffffffffffff1673ffffffffffffffffffffffffffffffffffffffff168152602001908152602001600020600082825461077c919061118c565b92505081905550600360003373ffffffffffffffffffffffffffffffffffffffff1673ffffffffffffffffffffffffffffffffffffffff16815260200190815260200160002054905092915050565b60006005600060149054906101000a900461ffff1661ffff161015610872576000601481819054906101000a900461ffff168092919061080a906111f0565b91906101000a81548161ffff021916908361ffff16021790555050673782dace9d900000600360003373ffffffffffffffffffffffffffffffffffffffff1673ffffffffffffffffffffffffffffffffffffffff168152602001908152602001600020819055505b336004836040516108839190610ff7565b908152602001604051809103902060006101000a81548173ffffffffffffffffffffffffffffffffffffffff021916908373ffffffffffffffffffffffffffffffffffffffff16021790555081600560003373ffffffffffffffffffffffffffffffffffffffff1673ffffffffffffffffffffffffffffffffffffffff168152602001908152602001600020908051906020019061092292919061096a565b50600360003373ffffffffffffffffffffffffffffffffffffffff1673ffffffffffffffffffffffffffffffffffffffff168152602001908152602001600020549050919050565b8280546109769061115a565b90600052602060002090601f01602090048101928261099857600085556109df565b82601f106109b157805160ff19168380011785556109df565b828001600101855582156109df579182015b828111156109de5782518255916020019190600101906109c3565b5b5090506109ec91906109f0565b5090565b5b80821115610a095760008160009055506001016109f1565b5090565b6000604051905090565b600080fd5b600080fd5b600080fd5b600080fd5b6000601f19601f8301169050919050565b7f4e487b7100000000000000000000000000000000000000000000000000000000600052604160045260246000fd5b610a7482610a2b565b810181811067ffffffffffffffff82111715610a9357610a92610a3c565b5b80604052505050565b6000610aa6610a0d565b9050610ab28282610a6b565b919050565b600067ffffffffffffffff821115610ad257610ad1610a3c565b5b610adb82610a2b565b9050602081019050919050565b82818337600083830152505050565b6000610b0a610b0584610ab7565b610a9c565b905082815260208101848484011115610b2657610b25610a26565b5b610b31848285610ae8565b509392505050565b600082601f830112610b4e57610b4d610a21565b5b8135610b5e848260208601610af7565b91505092915050565b60008060408385031215610b7e57610b7d610a17565b5b600083013567ffffffffffffffff811115610b9c57610b9b610a1c565b5b610ba885828601610b39565b925050602083013567ffffffffffffffff811115610bc957610bc8610a1c565b5b610bd585828601610b39565b9150509250929050565b6000819050919050565b610bf281610bdf565b82525050565b6000602082019050610c0d6000830184610be9565b92915050565b610c1c81610bdf565b8114610c2757600080fd5b50565b600081359050610c3981610c13565b92915050565b600060208284031215610c5557610c54610a17565b5b6000610c6384828501610c2a565b91505092915050565b600081519050919050565b600082825260208201905092915050565b6000819050602082019050919050565b600081519050919050565b600082825260208201905092915050565b60005b83811015610cd2578082015181840152602081019050610cb7565b83811115610ce1576000848401525b50505050565b6000610cf282610c98565b610cfc8185610ca3565b9350610d0c818560208601610cb4565b610d1581610a2b565b840191505092915050565b600073ffffffffffffffffffffffffffffffffffffffff82169050919050565b6000610d4b82610d20565b9050919050565b610d5b81610d40565b82525050565b60006060830160008301518482036000860152610d7e8282610ce7565b91505060208301518482036020860152610d988282610ce7565b9150506040830151610dad6040860182610d52565b508091505092915050565b6000610dc48383610d61565b905092915050565b6000602082019050919050565b6000610de482610c6c565b610dee8185610c77565b935083602082028501610e0085610c88565b8060005b85811015610e3c5784840389528151610e1d8582610db8565b9450610e2883610dcc565b925060208a01995050600181019050610e04565b50829750879550505050505092915050565b60006020820190508181036000830152610e688184610dd9565b905092915050565b600082825260208201905092915050565b6000610e8c82610c98565b610e968185610e70565b9350610ea6818560208601610cb4565b610eaf81610a2b565b840191505092915050565b60006020820190508181036000830152610ed48184610e81565b905092915050565b610ee581610d40565b82525050565b6000602082019050610f006000830184610edc565b92915050565b610f0f81610d40565b8114610f1a57600080fd5b50565b600081359050610f2c81610f06565b92915050565b60008060408385031215610f4957610f48610a17565b5b6000610f5785828601610f1d565b9250506020610f6885828601610c2a565b9150509250929050565b600060208284031215610f8857610f87610a17565b5b600082013567ffffffffffffffff811115610fa657610fa5610a1c565b5b610fb284828501610b39565b91505092915050565b600081905092915050565b6000610fd182610c98565b610fdb8185610fbb565b9350610feb818560208601610cb4565b80840191505092915050565b60006110038284610fc6565b915081905092915050565b7f4e487b7100000000000000000000000000000000000000000000000000000000600052601160045260246000fd5b600061104882610bdf565b915061105383610bdf565b9250828210156110665761106561100e565b5b828203905092915050565b600061107c82610bdf565b915061108783610bdf565b9250817fffffffffffffffffffffffffffffffffffffffffffffffffffffffffffffffff04831182151516156110c0576110bf61100e565b5b828202905092915050565b7f4e487b7100000000000000000000000000000000000000000000000000000000600052601260045260246000fd5b600061110582610bdf565b915061111083610bdf565b9250826111205761111f6110cb565b5b828204905092915050565b7f4e487b7100000000000000000000000000000000000000000000000000000000600052602260045260246000fd5b6000600282049050600182168061117257607f821691505b602082108114156111865761118561112b565b5b50919050565b600061119782610bdf565b91506111a283610bdf565b9250827fffffffffffffffffffffffffffffffffffffffffffffffffffffffffffffffff038211156111d7576111d661100e565b5b828201905092915050565b600061ffff82169050919050565b60006111fb826111e2565b915061ffff8214156112105761120f61100e565b5b60018201905091905056fea2646970667358221220064269811449ae956276adf90793cf4e106e8a8c9588ee108025bdef79a1529164736f6c634300080a0033",
  "immutableReferences": {},
  "source": "// SPDX-License-Identifier: GPL-3.0\npragma solidity >=0.7.0 <0.9.0;\npragma abicoder v2;\n\ncontract MySocial {\n    \n    address public owner;\n    uint16 private accountCount;\n    string[] private posts;\n\n    struct Feeds {\n        string name;\n        string caption;\n        address account;\n    }\n\n    Feeds[] private feeds;\n\n    mapping (address => uint) private accountBalance;\n    mapping (string => address) private accountAddress; \n    mapping (address => string) private accountName;\n    mapping (uint => address) private postAccount;\n\n    constructor() payable {\n        // require initial ether \n        require(msg.value == 20 ether, \"initial ether not anough\");\n        // set owner address\n        owner = msg.sender;\n        // account's counter begin counting\n        accountCount = 0;\n    }\n\n    function register(string memory _accountName) public returns (uint) {\n        // first 5 account will get 4 ether init \n        if (accountCount < 5) {\n            accountCount++;\n            accountBalance[msg.sender] = 4 ether;\n        }\n        accountAddress[_accountName] = msg.sender;\n        accountName[msg.sender] = _accountName;\n        return accountBalance[msg.sender];\n    }\n\n    function getAccountName() public view returns (string memory) {\n        return accountName[msg.sender];\n    }\n\n    function feed() public view returns (Feeds[] memory) {\n        return feeds;\n    }\n\n    function post(string memory _name, string memory _caption) public returns (uint) {\n        feeds.push(Feeds(_name, _caption, accountAddress[_name]));\n        // return last feeds\n        return feeds.length - 1;\n    }   \n\n    function donate(address _reciever, uint _amount) public returns (uint) {\n        // transfer ether from sender to reciever \n        accountBalance[msg.sender] -= _amount;\n        accountBalance[_reciever] += _amount;\n        \n        return accountBalance[msg.sender];\n    }\n\n    function balance() public view returns (uint) {\n        // get account balance\n        return accountBalance[msg.sender];\n    }\n\n    function withdraw(uint _amount) public returns (uint) {\n        uint _withdrawAmount = _amount * 9 / 10;\n        accountBalance[msg.sender] -= _amount;\n        payable(msg.sender).transfer(_withdrawAmount);\n        return _withdrawAmount;\n    }\n\n}",
  "sourcePath": "/Users/thanakornthongmee/Desktop/dev/practice/blockchain/fungjai-test/truffle/contracts/MySocial.sol",
  "compiler": {
    "name": "solc",
    "version": "0.8.10+commit.fc410830.Emscripten.clang"
  },
  "schemaVersion": "3.4.3",
  "updatedAt": "2021-12-06T17:10:55.441Z",
  "devdoc": {
    "kind": "dev",
    "methods": {},
    "version": 1
  },
  "userdoc": {
    "kind": "user",
    "methods": {},
    "version": 1
  }
}